:100000006F10206B00000000380900003809000064
:1000100000000000000000000000000000000000E0
:1000200000000000000000000000000000000000D0
:10003000380900000000000038090000000000003E
:1000400038090000380900003809000038090000AC
:10005000380900003809000038090000380900009C
:10006000380900003809000038090000380900008C
:10007000380900003809000038090000380900007C
:10008000380900003809000038090000380900006C
:0C009000380900003809000038090000A1
:10009C002A86014593F6150091C232958581060694
:1000AC00F5F9828000000000634E050263C305046D
:1000BC002E86AA857D5515C285466378B600635693
:1000CC00C00006068606E36CB6FE014563E4C50077
:1000DC00918D558D85820582F5FA82808682C93F85
:1000EC002E8582823305A04063D70500B305B0404E
:1000FC00C1B7B305B0408682653F3305A04082820C
:10010C00868263C70500634905005D372E858282B0
:10011C00B305B040E35B05FE3305A040513F33050A
:10012C00B04082820000B727014093870740984770
:10013C00B7064000558F98C7B72601401387064075
:10014C001C43898BE5DF6847420541818280511150
:10015C0006C4D13F930795EB1307F5E8C207420796
:10016C001305B5DAA240C1834183420593B77702E8
:10017C00133777024181D98F133575025D8D3101AB
:10018C008280511106C44537930745E11307C5DD3D
:10019C00C20742071305B5DAA240C1834183420569
:1001AC0093B77702133777024181D98F13357502D4
:1001BC005D8D31018280511106C4B537930795FBD3
:1001CC00130705F1C20742071305F5E8A240C183E6
:1001DC004183420593B77702133777024181D98F58
:1001EC00133575025D8D3101828083C781829546FE
:1001FC00014563E5F600850713F5F70F2384A1820B
:10020C00828051111305B5FD26C093148501E1843C
:10021C00910522C22685139485018D4506C4693546
:10022C007515A38CA1828D452685D93D6205618506
:10023C0061843335A000A38FA1828D452285AD3515
:10024C0093178501E187139517003E95A240018D08
:10025C0012449386D7FF3335A000238CD182238D93
:10026C00A18282443101828083C7218405663111C9
:10027C001397270013068674BA9732C493F7F70FB7
:10028C001386818422C826C63EC001478147814619
:10029C0089428D4432C215440246A2453A96620602
:1002AC0061862E9683430600814513F6F50F630C89
:1002BC00550463E6A20031E1BA87B28619A0630D3A
:1002CC00950412431396260036961A9613030008CB
:1002DC003353B34033F363003E9633336000230053
:1002EC0066008505E39385FC05071377F70FE31587
:1002FC00B7FA4244B244510182809146998E93F6EA
:10030C00F60FB2877DBF91473386C740998F93769E
:10031C00F60F93F7F70F75B79147918F93F7F70F88
:10032C00BA8645B7511122C206C42A847D3DA381E9
:10033C00A18483C7218411476362F7028546054770
:10034C0063E5F6000D4791C30147230004001244F6
:10035C00A240A387E1820145310139B7ED1793F72C
:10036C00F70F85460147E3E2F6FE0D47F9BFAA8772
:10037C0063CF05021377F50FAD46054563EAE60238
:10038C0049476347B70213F7750013050008335547
:10039C00E540139717003E97938781848D85BA9714
:1003AC00AE9783C7C7017D8D3335A0008280014590
:1003BC00828083C791831301C1FD22CE03C7818341
:1003CC00AA971384818406D026CC93F7F70F930257
:1003DC005400854393158701E185BE84A2861303DF
:1003EC00940103C606006316760213958401618599
:1003FC001ACA32C83AC63EC436C22EC08D3F93824A
:10040C00D18482459246A2473247424652438543A5
:10041C0011ED8504950693F4F40FE39466FC05073F
:10042C0005041377F70FE31754FA01468250724410
:10043C00E24432851301410282801301C1FD03C3E2
:10044C00918322CE03C4818326CC2A949384818405
:10045C0006D01374F40F93825400854393158401D2
:10046C00E1859A8726871386940183460700639655
:10047C00760213958701618532CA36C83AC61AC40A
:10048C002EC23EC0ED359382D184824792452243E1
:10049C003247C2465246854311ED8507150793F73F
:1004AC00F70FE314C7FC050485041374F40FE397EA
:1004BC0054FA814682507244E2443685130141025B
:1004CC008280130181FD26CE06D222D003C4070000
:1004DC00BA841307F4FF2A97634CC70C2A8332CAD9
:1004EC001ACC01456340660C13F7F50F9353370094
:1004FC003AC863E9760A83C517003EC61EC2B382AA
:10050C00B30036C063C0D20A228559369302150057
:10051C0093F2F20F9385F2FF268516C4953E924313
:10052C008246424793140501B38676408E03330707
:10053C00774093F5F60F1377F70F22853AC22EC04A
:10054C00813E524662439376F50F090633066640A8
:10055C001376F60FA2423383C6001373F30F824552
:10056C001247B247C180014563EB620033859700A7
:10057C001A95034505003315E5001375F50F9DC15C
:10058C00818E36961376F60F63EEC200A697B2975D
:10059C0083C70700A1463387E640B3D7E740C98F2E
:1005AC0013F5F70F92500254F2441301810282802A
:1005BC000145CDBF411122C403D4418393054006AC
:1005CC0006C6228526C2ED341377F50F13151700D6
:1005DC003A950E053A959386C1820A052381E60069
:1005EC003305A440A9453AC0C13402479377F50FAF
:1005FC009386C182131527003A950E05198D139712
:10060C002700A380F6000A05BA97B2402295860708
:10061C0022441D8D2386A18292444101828093073E
:10062C0005FF93F7F70F3147636BF70685472A866B
:10063C00AE86014563E7B706311126C41383C18228
:10064C000347230085672EC29387C776A145414592
:10065C0006C822C632C0B53585671383C18213879D
:10066C00C77692460246BA87034713002A84A145EF
:10067C005145813D03C7C182924602468567498C2C
:10068C009387C776A14561452D3D1374F40FC24085
:10069C00418D3244A2441375F50F510182800145FE
:1006AC0082808280930735F993F7F70F25476366AD
:1006BC00F706411122C406C626C295472A84014575
:1006CC006398F50483C79182A9453E853EC0CD321F
:1006DC0085671387C776BA8795461377F50F2286F9
:1006EC00930590021305D006E93BAA840245A9455F
:1006FC00F53285671377F50F9387C7769546228673
:10070C0093059002130520076D3B458D1375F50F6E
:10071C00B2402244924441018280014582801301FF
:10072C0041FD26D083D461832EC289652AC093856E
:10073C000571268506D422D2A53A93170501C183EB
:10074C003EC89377F50F3EC6324792460246856700
:10075C009387C776A1451305F0053EC49D332A84C3
:10076C004245F9759385058F2532AA839305803E02
:10077C0026951ECA153A92460246A2471377F50FE4
:10078C002AC8A145130530062D3BC242498CD243E1
:10079C0013955200330555400A0516950E05B307FF
:1007AC00A0403385A4401E959305400616CE1ECC62
:1007BC003EC8EFF07F8F92460246A2471377F50FA3
:1007CC002ACAA14513057006ED3952431374F40F70
:1007DC00498C131513001A950E05C2471A95E2435E
:1007EC000A053385A4403E951E95A945EFF0DF8B95
:1007FC00A247924602461377F50F2AC8A145130566
:10080C00B006C131B2475243F242C2433303604097
:10081C0092079D8C93171300139722009A97330716
:10082C0057408E07B30370403E930E0793972300F7
:10083C000A032697BE931A97A2478603924602464E
:10084C001E971374F40F498C1377F70FA1451305FA
:10085C00F0068539A247924602461374F40F498C70
:10086C000147A14513053007A9391374F40FA250A1
:10087C00418D125482541375F50F1301C1028280FD
:10088C00B75700409387074003D7470113770708F2
:10089C0065DF2398A7008280B757004093860740F6
:1008AC0003D746011377070865DF03D707401367A3
:1008BC0007202390E7408280B7F700E09C4737F78A
:1008CC0000E03E951C47898FE3CE07FE828013071C
:1008DC00F00F3111098F22C6131417009387F5FFFF
:1008EC003A9426C406C8AA8693F7F70F0A04B714DD
:1008FC00014089C613870480094650CB228536C235
:10090C003EC05D3F13870480094610CB22856D37AE
:10091C0082471307F00F9246FD1793F7F70FE39AF0
:10092C00E7FCC2403244A2445101828001A0B75777
:10093C0000409386074003D78601098B6DFF03D7D0
:10094C000740136707102390E740B7570040938781
:10095C00074003D74701058B6DDF130780072398EA
:10096C00E700B7560040370703009386064013078D
:10097C00270803D6460183D78601C207D18FF98F8A
:10098C00E399E7FE8280511106C422C22A844537BE
:10099C000145FD351365040BE5350145D53541455C
:1009AC00C5351244A2403101C5BD856713878774D4
:1009BC001301C1FA130707059387877486C8A2C66B
:1009CC00A6C42AD83ACA02C43ECE834781003E85CB
:1009DC003EC2553FA93F130500045D35A24772473F
:1009EC0002C69E0713070706BA973EC8F2479387BD
:1009FC0007463ECC8347C10081443EC0D24703C466
:100A0C00070083C717003ED08247938727FD93F7D3
:100A1C00F70F3ED282576375F406925713073002D4
:100A2C006365F70EE24793158401E18583C727FDC3
:100A3C001395870161853ED4EFF07F930547A2574C
:100A4C006317E52213971700931514003385E700FD
:100A5C00A2959246024695051305E502E20562054C
:100A6C009387C1810147E1856185A13C82571303BE
:100A7C001400458D1374F30F9374F50FE364F4FABB
:100A8C00C247814383C70700C58F3ED083C76184AB
:100A9C00938481843ED203C451846D141374F40F77
:100AAC0012539315840193879401E185A6823ED459
:100ABC0083C7020005476397E70292460246131567
:100ACC00830193874181014761851EDE16DC2EDA96
:100ADC001AD6C53AF253E252D255325333657500E9
:100AEC009373F50FA2570D0395021373F30FE39154
:100AFC00F2FC0D0485049387D1841374F40FE391F5
:100B0C00F4FA825733E5770015A2C24792450245A5
:100B1C0083C707003ED0213632472AD2930790056F
:100B2C0063F8E70E83C7318415476360F70E1387AC
:100B3C00C1803E9783460700370700201307470004
:100B4C003E978344070013972700BA9793F7F70F44
:100B5C009386C6053ED4D90493F7F60F93F4F40F9D
:100B6C00014401433EDAA2577247D2539A97E207E7
:100B7C00E187BA9783C7070093958401E1853ED638
:100B8C008142325793070008B3D75740F98F85CB72
:100B9C009246024613958301B707002093870700FE
:100BAC00014761859AC296C02EDE1EDCEFF07F9164
:100BBC0016438642F255E253418D1374F50F8903A7
:100BCC008502954793F3F30FE39DF2FA050389042D
:100BDC001373F30F93F4F40FE31753F81257825770
:100BEC000145D98F5D8C824761471374F40F93874D
:100BFC0017FA93F7F70F6364F7022247854763E010
:100C0C00E70292450245213E19A88144814625BF41
:100C1C0082571257014533E4E7001374F40F498CE3
:100C2C00924502451374F40FB53C418D1375F50FC5
:100C3C008139B247425785073EC6C24785073EC831
:100C4C00E24785073ECCB247E396E7DAB131A247DB
:100C5C0085073EC4D247224789073ECAA147E316FF
:100C6C00F7D6C6403644A6441301410582801303CF
:100C7C0014001374F30F79BB130181FD26CE06D239
:100C8C0022D02AC802C2814493F7F40F3E853EC09D
:100C9C00DD39713913050004E53692468567938773
:100CAC0087741387874836973AC493870706139738
:100CBC007400BA973EC6014432479377F40F3ECA8C
:100CCC00C2472297834207001307D00283C707004D
:100CDC00636887060D476363F70881478245137580
:100CEC00F40F3ECC16CAEFF09F93D242E2478245F6
:100CFC00B3E75700C98F93F7F70F1375F40F3ECA7C
:100D0C00EFF05F9AD24705045D8D1375F50F8D3E9C
:100D1C00A24785073EC493070008E31FF4F8AD3ED5
:100D2C0092478504938747023EC2124793070012ED
:100D3C00E31CF7F492500254F244130181028280B6
:100D4C0013071005636887002247034727FDB3E2AA
:100D5C00E20049B70D4701456375F7048246896780
:100D6C00938707CF01471376F40FF1451305100352
:100D7C0016CCEFF00FF582468567938787742ACAE5
:100D8C009387875C01471376F40F93054002130594
:100D9C001003EFF00FF3D243E24233E5A3001375D7
:100DAC00F50F9377F40F138717FA1377F70FE146C4
:100DBC00B36255008147E3E3E6F20547E36097F23F
:100DCC0082451375F40F16CAEFF07F95D242AA87AD
:100DDC0031B71377F50FAD4763EBE70293F7F50FD8
:100DEC0049476366F7029D8B130700083357F7409A
:100DFC009316150093D73540AA9693858184B695A2
:100E0C00BE9583C7C50109C6D98F238EF500828094
:100E1C001347F7FFF98FD5BF211126C606CA22C882
:100E2C002AC02E878144B306970003C60600854668
:100E3C006315D60293978401E18701443EC20246B2
:100E4C0092451315840161853AC40504593713740E
:100E5C00F40FB1462247E314D4FE8504CD46E39447
:100E6C00D4FCD2404244B2446101828003D5418318
:100E7C005111D14526C006C422C2EFF06FA383C71F
:100E8C0091821375F50F6383A702A384A182254475
:100E9C0093050005130580021D3C7D149305000588
:100EAC00130560091374F40F1D347DF083C7918210
:100EBC005147636EF700139527003E950605D14503
:100ECC003305A040EFF04F9E2D052388A182A24050
:100EDC001244824431018280371701401C43B7060B
:100EEC00F1FF130141FCFD1606DC22DA26D8F58F42
:100EFC001CC3930707809443FD751386F50FF18E81
:100F0C00056613050680C98E94C3D44737052000A7
:100F1C00BD0593E64600D4C79443130606DD8964E9
:100F2C0093F6F6F093E6060194C3894694CBB71773
:100F3C000240944F0144938404D393E6160194CF5A
:100F4C00D44FC98ED4CF1C43ED8FD18F1CC33757D0
:100F5C00004083574740C207C18393F707FC93E7D0
:100F6C0037002312F740F1778507231EF74083578C
:100F7C00074093E717402310F740EFF05F9B0145C4
:100F8C00EFF01F90B387840003C507000504EFF052
:100F9C003F8FBD47E318F4FEEFF01F903717024068
:100FAC001C4FB726014093E717201CCFB7270140F1
:100FBC0037070E0093870740050798C798471367B4
:100FCC00870098C7938706409847218B65FF984701
:100FDC00B72601401367470098C7138706401C4784
:100FEC00918BE5FF89475CDBA3840182239A018204
:100FFC00239B0182EFF0AF9509C93725B700130584
:10100C0005B0EFF07F8BEFF08F941386818401474E
:10101C007106B1450D45B306E6008147850723806F
:10102C00060093F7F70F8D06E39AB7FE0507E31456
:10103C00A7FE13878184150793878184238007007B
:10104C00A382070023850700A3870700238A0700D4
:10105C008507E395E7FE238E0182A3800184A38D8F
:10106C000182054723890182A388E18223830184BD
:10107C0023800184A3810184A387018223820184BC
:10108C00A38C0182238C0182A38F0182238D018288
:10109C00238F0182A38E0182A3820184C13B8145EF
:1010AC000145EFF00F96A3840182239A0182239BC2
:1010BC000182230E0100EFF0EFCF6808753EEFF0D0
:1010CC00CF92B71701402381A184938707809C4757
:1010DC00918BC5E723960182930560099387C182A2
:1010EC00514523810700EFF08FFE9305600913052E
:1010FC004006EFF0CFFD1305B101EFF0AFA21305E1
:10110C000008EFF09F8A3725B700130505B0EFF004
:10111C00AFFA930770032383F1849547A382F1847C
:10112C0002C003C4F18361E083C721836394071079
:10113C00EFF06F8809CD83C7C183ADC7D1466393E8
:10114C00D7080547238FE18289472389F182EFF085
:10115C004F8351C983C7C183B5EB89450D453EC249
:10116C00EFF0EFF67D569247238FC1828946238993
:10117C00D1828507238EF182BDA037150600130599
:10118C0005AEEFF06FF38347C1019946014763E564
:10119C00F600850713F7F70F6808230EE100EFF050
:1011AC00BFAD31BF89450D453EC2EFF04FF205464C
:1011BC009247238FC18289462389D1828507238E4A
:1011CC00F18271B7CD46E3E4F6F8CDBFD146639911
:1011DC00D7007D57238FE18289472389F18221A093
:1011EC00CD46E3F8F6F8EFE01FFD01E9EFE07FF9FB
:1011FC0009E5238E0182EFE05FFFB717014093876B
:10120C0007809C47918B8DCB83C7A1835D8C0DE4AC
:10121C002380018483C71183FD1793F7F70FA388ED
:10122C00F182B5EF8546A38ED18283C70183A38853
:10123C00F182B5A0FD1755B703C701848547631D1F
:10124C00F70483855184038561840344B101EFE085
:10125C005FFB83C7F18201456376F400130514002C
:10126C001375F50FA30DA100EFF00F800385F1832B
:10127C00EFF02F9483C7A18301E913958701618552
:10128C00EFF0AF9B6308052A2285A30D8100EFE0E8
:10129C00BFFD89472380F18483C7A183A5DF83C762
:1012AC00B1836386072AFD1793F7F70FA38DF1829D
:1012BC00EFE0FFE96300052A83C7F18391E7238FF1
:1012CC0001820547238EE182EFE03FF283C7118450
:1012DC0091E70547A38EE182A38D018283C64184E9
:1012EC0019476391E6182382018401449387818412
:1012FC009376F40FA297814483C5070005460387B4
:10130C0081836394C50203C59183B385E600E2052E
:10131C00269562050546E18561853EC63AC436C20E
:10132C00EFF03FABB24722479246850493F4F40F9B
:10133C0015469507E392C4FC0504E31994FA03D40B
:10134C006183A14763CBE720090442044180239BBE
:10135C008182A38201842383018402CE02D002D233
:10136C0002D42316010223070102014701469315FB
:10137C00870185468147E18513958701618536CACA
:10138C003AC832C62EC43EC2EFE07FFE9247A24559
:10139C0032464247D2463143CD42854311E1814624
:1013AC00850793F7F70FE39967FC91C67C08BA970A
:1013BC002380770036860507E31B57FA85476300C1
:1013CC00F61A014781470546CD466C08BA9583C588
:1013DC0005006395C500850793F7F70F0507E3161E
:1013EC00D7FE03D741833E97FD17239AE18293F7EB
:1013FC00F70F8D46014763E7F60013874182BA97D2
:10140C0003C707002297239BE1820144EFF08F9AD8
:10141C001315840185456185EFE07FF585446301F3
:10142C00952205041374F40FB147E313F4FE8947B6
:10143C00A382F184930770032383F18403C731845F
:10144C001305B1012381E184EFE0DFED1305000802
:10145C00A3809184EFF06FD5EFF05FA11305000826
:10146C00EFF0AFD4B7170140938707809C47918B5F
:10147C0089EB83C7018491E7EFE03FD78547238051
:10148C00F18403846184838751842285BE853EC2A6
:10149C00EFE03FD783C6F18381EA0385E183EFE078
:1014AC005FF119C1238F01820387E183854663189D
:1014BC00D71C0504238381848387618492453E85F0
:1014CC003EC4EFE01FD483C7F18399E3238F0182DD
:1014DC000385D183EFE07FF66308051A238E018222
:1014EC0023800184130520059946A38E0182238253
:1014FC00D184EFF08FCB03C7B18311EB8387D183FA
:10150C007D576396E7189247FD17A382F184838574
:10151C0051842245EFE0FFCE83C7A18399E3A38ECC
:10152C00018202479947631AF71613052005EFF05D
:10153C00CFC7FDB695450D45EFF06FB9A9452945C7
:10154C00EFF0EFB895450D45EFF06FB899B383C741
:10155C000183A9BBA380018451B30504FDB36C08BE
:10156C000545EFF07F8B13052005EFF00FC46C08D9
:10157C000145EFF07F8AFD141305200593F4F40F59
:10158C00EFF0AFC2E9FC26858545EFF04FB4890436
:10159C0093F4F40F9307C00FE397F4FEC944854707
:1015AC00138784013408BA9603C6C6FE6311F60885
:1015BC00814789C49387F4FF93F7F70F138787014B
:1015CC003408BA9683C5C6FE054681466387C506B0
:1015DC001397840161873AC41397860161873AC2D5
:1015EC00014681CF93958701E1853A8536C83EC681
:1015FC00EFE0FFD7C246B2472A86A245124536C84D
:10160C003EC6EFF00FFDC2463146B247850693F653
:10161C00F60FE393C6FCE38604DA1387F4FF9374A6
:10162C00F70F81C7FD1793F7F70FC9F859BBADDC5E
:10163C001387F4FF9374F70FA5B7C9D3FD17ADBF8C
:10164C0013050008EFF06FB61304400613151400D1
:10165C0099451375E50FEFF08FA72285B145EFF093
:10166C000FA77D141374F40FA947E311F4FE37355B
:10167C006E0113050560EFF02FA46FF01F99FD5656
:10168C00E31CD7E27D143DB523820184ADB505473B
:10169C00E39FE7E6924785078DBD8247850793F761
:1016AC00F70F3EC0BDBC97F1FF1F9381E11413816E
:1016BC00010013050008731005308D4673904680A9
:1016CC0017F5FFFF13054593558D731055300967BA
:1016DC00B7070020130707D49387070093868182EE
:1016EC0063E5D704938781821387818863E4E704D9
:1016FC00B727024023A0070037079F00B717024007
:10170C0098C74147D8C31307100898C3954637F7B5
:10171C0000E014C3984F1367470398CF85679387EE
:10172C0047EE73901734730020301043110790C3A9
:10173C0091077DB723A0070091074DBF00207000D3
:10174C00000000303000000030600000103020003D
:10175C0020202020000020206000002020300000ED
:10176C0004011F111F00001F00001D15170011158B
:10177C001F0007041F0017151D001F151D00011D5C
:10178C0003001F151F0017151F00000000020004A6
:10179C0003070609090C0B0F0E111113FC02F9F5C6
:1017AC001D0D0D0D0D0B071F3F202F2F3F223F202E
:1017BC003933203F202A2E3F2D2A2A361F070B0DA6
:1017CC000D0D0D1DF5F902FCF800400040400040E5
:1017DC00400040400040400040400040400040403D
:1017EC00004040004040004040004040004000F8B5
:1017FC00FC02F9F51D0D0D0B071F3F2D2A2A363F54
:10180C00312E2E3F312E2E313F203A322D3F202AC1
:10181C002E3F1F070B0D0D1DF5F902FCFF007FBFBE
:10182C00E0C0C0C0C0C0C0C0C0C0C0C0C0C0C0C08C
:10183C00C0C0C0C0C0C0C0C0C0C0C0C0C0C0C0C09C
:10184C00C0C0C0E0BF7F00FFFF0000000000000030
:10185C00000000000000000000000000000000007C
:10186C00000000000000000000000000000000FF6D
:10187C00FF007FBFE0C0C0C0C0C0C0C0C0C0C0C0FF
:10188C00C0C0C0C0C0C0C0C0C0C0C0C0C0C0C0C04C
:10189C00C0C0C0C0C0C0C0E0BF7F00FF0001FA5A8A
:1018AC007A5ADA5A7A5ADA5A7A5ADADA7A5ADA5A8C
:1018BC007A5ADA5A7A5ADA5A7A5ADA5A7A5ADA5AFC
:1018CC007A5ADA5A7AFA0100FF0000000000000090
:1018DC0000000000000000000000000000000000FC
:1018EC00000000000000000000000000000000FFED
:1018FC000001FAFA5A5A5A7A5A5A5A7A5A5A5A7A4F
:10190C005A5A5A7A5A5A5A7ADADA5A7A5ADA5A7A2B
:10191C005ADA5A7A5ADA5A7A5AFA01000000FF5502
:10192C007755DD557755DDF5FF3F07E0FCBCE081D1
:10193C00071D7DD57755DD557755DD557755DD552B
:10194C007755DD5577FF0000FF0000000000000018
:10195C00000000000000000000000000000000007B
:10196C00000000000000000000000000000000FF6C
:10197C000000FF00FEFD070303030303030303033F
:10198C00030303030307FDFE0001FFF7D5DDD5F7C5
:10199C00D5DDD5F7D5DDD57755FF00000000FF5517
:1019AC007755DDF57F3F8FC3F0DCBFF7EFFDEAD74E
:1019BC00BCF04081071D753F87F181030F35DD5564
:1019CC007755DD5577FF0000FF0000000000000098
:1019DC0000000000000000000000000000000000FB
:1019EC00000000000000000000000000000000FFEC
:1019FC000000FF00FFFF00000000000000000000DE
:101A0C00000000FC7EC25E7E42525A7E625E627EA6
:101A1C0042525A7EC25EFC0103FF00000000FF55DB
:101A2C007755DF577CF8E1042AEEDA4E0A0A0E1AD3
:101A3C00AE0A0501C060786F5F7E756F5860C00399
:101A4C000F75DD5577FF0000FF000000000000005F
:101A5C00000000000000000000000000000000007A
:101A6C00000000000000000000000000000000FF6B
:101A7C000000FF7873E5676666E666666EFEFE0E2E
:101A8C0006C600FFFF800000000000000000000000
:101A9C000000000080FFFF0000FF000000000F1599
:101AAC0017951D15971F9F0009BF3A9520009100AF
:101ABC00AA0000800285372D9507850D3785028099
:101ACC00181C9F15170F0000FF00000000000000FD
:101ADC0000000000000000000000000000000000FA
:101AEC00000000000000000000000000000000FFEB
:101AFC0000000F17159D1517951D9517157F3F8025
:101B0C00001D94199A131393139313177F3F870394
:101B1C001393139313129110180F00000000000080
:101B2C00060F0D1F1D161F1D1F1D363F3D7F7D7699
:101B3C00FFFDFFFD767F7D3F3D361F1D1F1D161FD0
:101B4C001D0F0D0600000000FF80808080808080CB
:101B5C008080808080808080808080808080808079
:101B6C00808080808080808080808080808080FFEA
:101B7C0000000000060F0D1F1D161F1D1F1D363FF8
:101B8C003D7F7D76FFFDFFFD767F7D3F3D361F1D42
:101B9C001F1D161F1D0F0D06000000000000000188
:101BAC0001010202020303030404040505050606F1
:101BBC00060707070808080909090A0A0A0B0B0B8C
:101BCC000C0C0C00D5F8F4EA547A5568747A546A03
:101BDC005578746A547A5568747A546A5578746A6C
:101BEC00547A5568F4FAD4EAFF0100020282FE82AC
:101BFC00020288FA8000F8100808F0001860C0385B
:101C0C0088A0A8A828282808080801FFFF000404B9
:101C1C000414141454545050440404FC040404F0EC
:101C2C0022120110F400002050509000000000FF20
:101C3C00FF00000000804040004040C04040018157
:101C4C004140800100C0404181014041C141400000
:101C5C00000000FFFF000000000112120C00001F2A
:101C6C000000001F02021F00001F060A11000000E6
:101C7C001F000000000000FFFF000000F0B05088C3
:101C8C0088C8505020206060B0901018089898A414
:101C9C00E446E4E4E8F8F0F0000000FFFF00000088
:101CAC0003060D1A3F6BD6AA54F8FCFCFEFEAB7F64
:101CBC007F3F3F1F0F0D070703030101000000FFCB
:101CCC001F3C3838303030303030303133373331EE
:101CDC0031303030303030303030303030303030F7
:101CEC0038383C1F1E01FE010101010101010101F7
:101CFC0001010101010101010101010101010101C8
:101D0C00010101FE1E010304040404040404040480
:101D1C000404040404040404040404040404040477
:101D2C0004040403A83F8D14200021007F22003FEF
:041D3C00DA12AF0008
:101D40000201C0C001FF000001000000010001000D
:101D5000010100000301E0E0E000000003010705CD
:081D6000070000000205080C59
:00000001FF
